:100000000C942A000C9447000C9447000C94470071
:100010000C9447000C9447000C9447000C94470044
:100020000C9447000C9447000C9447000C94D101A9
:100030000C9447000C9447000C9447000C94470024
:100040000C9447000C9447000C9447000C94470014
:100050000C94470011241FBECFE5D8E0DEBFCDBF12
:1000600010E0A0E6B0E0EAE3F8E002C005900D92EF
:10007000A437B107D9F725E0A4E7B0E001C01D928D
:10008000A139B207E1F70E94F1030C941B040C9410
:100090000000009709F435C1FC012081213009F4EA
:1000A00062C020F0223009F02EC1D3C0FC012181B2
:1000B000222321F0213009F04EC02BC023B723BFEB
:1000C000FC0122812230A9F030F4222359F02130A2
:1000D00009F043C00AC02630A1F02730B1F0243027
:1000E000E1F50BC0109276001AC021E02093760053
:1000F00016C022E02093760012C023E02093760001
:100100000EC024E0209376000AC025E020937600FC
:1001100006C023B7276023BF27E020937600FC01A9
:100120002381222319F02130D1F404C029B72E7F76
:1001300029BF06C029B7216029BF2FB720682FBF6C
:10014000FC0184819581009761F090937500809304
:10015000740080E008958FEF08958FEF08958FEF7A
:10016000089580E00895FC012181222321F02130AF
:1001700009F067C03FC02EB53FB53FBD2EBDFC01A5
:1001800022812230D9F030F4222361F0213009F0AD
:100190005AC00DC0263001F1273029F1243009F072
:1001A00052C013C010927800109277002EC021E048
:1001B00030E0309378002093770027C022E030E0D1
:1001C000309378002093770020C023E030E0309314
:1001D00078002093770019C024E030E03093780055
:1001E0002093770012C025E030E030937800209310
:1001F00077000BC02EB53FB527603FBD2EBD27E071
:1002000030E03093780020937700FC012381222393
:1002100019F02130D1F404C029B72B7F29BF06C0C3
:1002200029B7246029BF2FB720682FBFFC01848124
:100230009581009761F0909375008093740080E041
:1002400008958FEF08958FEF08958FEF089580E060
:100250000895FC01218121114CC025B525BD2281C5
:100260002330C1F020F4213069F080F408C025303B
:10027000C9F0A0F02630D1F02730E9F51BC010926C
:1002800079001BC021E02093790017C022E0209361
:10029000790013C023E0209379000FC024E020935D
:1002A00079000BC025E02093790007C026E0209359
:1002B000790003C027E020937900FC0123812223E9
:1002C00019F02130D1F404C029B72F7729BF06C017
:1002D00029B7206829BF2FB720682FBFFC01848170
:1002E0009581009761F0909375008093740080E091
:1002F00008958FEF08958FEF08958FEF089580E0B0
:1003000008958FEF08958FEF0895813061F018F010
:100310008230F9F416C062BF93B780917600892BC2
:1003200083BF80E008957DBD6CBD2EB53FB5809143
:10033000770090917800822B932B9FBD8EBD80E03B
:10034000089564BD95B580917900892B85BD80E0C5
:1003500008958FEF0895813061F018F08230F9F43C
:1003600016C093B7809176008095892383BF80E083
:1003700008952EB53FB580917700909178008095D3
:100380009095822393239FBD8EBD80E0089595B5FF
:10039000809179008095892385BD80E008958FEF55
:1003A00008951F920F920FB60F9211242F933F932F
:1003B0004F935F936F937F938F939F93AF93BF936D
:1003C000EF93FF938091740090917500892B29F031
:1003D000E0917400F09175000995FF91EF91BF9144
:1003E000AF919F918F917F916F915F914F913F91CD
:1003F0002F910F900FBE0F901F90189566E070E040
:10040000809160000E94850181E080937A000895C8
:10041000CF93DF93CDB7DEB762970FB6F894DEBF08
:100420000FBECDBF26E0E1E6F0E0DE0111960190BF
:100430000D922A95E1F726E0E7E6F0E0DE01179657
:1004400001900D922A95E1F726E0EDE6F0E0DE015D
:100450001D9601900D922A95E1F7209160002330BE
:1004600021F5009721F1FC018081813061F018F0C5
:100470008230F9F411C0CE0101960E944900109219
:10048000600080E017C0CE0107960E94490081E01D
:100490008093600080E00EC0CE010D960E9449005E
:1004A00082E08093600080E005C083E003C081E0CB
:1004B00001C087E062960FB6F894DEBF0FBECDBFD5
:1004C000DF91CF910895CF93DF93CDB7DEB76297D9
:1004D0000FB6F894DEBF0FBECDBFFE01319686E0A9
:1004E000DF011D928A95E9F781E08F8318861986CE
:1004F0001A861C861B8682E08D871E861F86188AB8
:100500001A8A198A80916000833009F44FC08130C3
:10051000E9F020F0823009F04BC030C080E00E944A
:10052000AB01CE0101960E94490083E080936000F8
:1005300010927B00E7E8F0E08BE995E011821082F1
:100540003D96E817F907D1F780E033C081E00E94BB
:10055000AB01CE0107960E94490083E080936000C2
:1005600010927B00E7E8F0E08BE995E011821082C1
:100570003D96E817F907D1F780E01BC082E00E94A2
:10058000AB01CE010D960E94490083E0809360008C
:1005900010927B00E7E8F0E08BE995E01182108291
:1005A0003D96E817F907D1F780E003C082E001C06B
:1005B00082E062960FB6F894DEBF0FBECDBFDF912A
:1005C000CF9108959F92AF92BF92CF92DF92EF9218
:1005D000FF920F931F93CF93DF93EC016A017B018E
:1005E000A22E009709F479C080916000833009F44D
:1005F00076C0E7E8F0E0ABE9B5E087E0402F50E0F7
:1006000095E0B42E152F608171816417750709F488
:10061000892F3D96EA17FB07A1F7982E873009F03E
:1006200057C080917B0081111CC081E080937B00CA
:1006300080916000813051F018F0823091F40CC04C
:1006400066E070E080E00E9485010BC066E07FEF0D
:1006500081E00E94850105C066E070E082E00E94B2
:100660008501002309F441C08091870090918800A2
:10067000892B59F0E4E9F0E081E090E0682FAC01CB
:1006800020813181232BD9F403C040E050E060E0A9
:100690008DE0849FF001859FF00D1124E458FF4FF9
:1006A000D183C083C282D382E482F582C782D0869E
:1006B000E186F286A682B386148780E007C06F5F6A
:1006C00001963D9684369105C9F6892D643649F028
:1006D000882369F010927B000AC081E0F9CF82E0A4
:1006E000F7CF0F2EF6E09F2EF02D892DF3CFDF915F
:1006F000CF911F910F91FF90EF90DF90CF90BF901F
:10070000AF909F900895CF92DF92EF92FF920F9358
:100710001F93CF93DF9380917A00813009F047C017
:1007200010927A00CCE7D0E002E810E00F2EF0E95A
:10073000EF2EF5E0FF2EF02D6894DD24D1F80F2E7A
:10074000F7E0CF2EF02D8B859C85892B49F14F81C9
:10075000588569857A8541505109610971094F832E
:10076000588769877A87452B462B472BC9F4D801D0
:100770008C91882371F0813091F48A819B81AC81C6
:10078000BD818F839887A987BA87E881F981099508
:1007900007C01C861B86E881F981099501C0DC2C05
:1007A0002D96035F1F4FCE15DF0569F603C06894D1
:1007B000DD24D1F88D2DDF91CF911F910F91FF9006
:1007C000EF90DF90CF90089585B3809585BB8091A1
:1007D00090058F5F80939005089582B3809582BBCA
:1007E0000895CF93DF931F92CDB7DEB78FEF84BB11
:1007F00081BB1982CE0101960E94080204E121E02A
:1008000048EE53E060E070E084EE93E00E94E20284
:100810000EE121E044EF51E060E070E08DEE93E006
:100820000E94E2020E948303809190058B30D0F3F6
:0A0830000E946302F7CFF894FFCF97
:10083A000300000401FE0101000401FE010200049C
:04084A0001FE0100AA
:00000001FF
