S00B0000544D552E7372656323
S11300000C942A000C9447000C9447000C9447006D
S11300100C9447000C9447000C9447000C94470040
S11300200C9447000C9447000C9447000C949D01D9
S11300300C9447000C9447000C9447000C94470020
S11300400C9447000C9447000C9447000C94470010
S11300500C94470011241FBECFE5D8E0DEBFCDBF0E
S113006010E0A0E6B0E0E2E0F7E002C005900D92F7
S1130070A437B107D9F725E0A4E7B0E001C01D9289
S1130080A139B207E1F70E94D7010C947F030C94C5
S11300900000FC01009709F426C18081813009F435
S11300A05DC020F0823009F020C1C9C0818188235D
S11300B021F0813009F04AC02AC083B783BF82810E
S11300C08230A9F030F4882359F0813009F040C01F
S11300D00AC08630A1F08730B1F08430C9F50BC076
S11300E0109276001AC081E08093760016C082E0F8
S11300F08093760012C083E0809376000EC084E083
S1130100809376000AC085E08093760006C083B7AA
S1130110876083BF87E0809376008381882319F00A
S11301208130C1F403C089B789BF06C089B7816033
S113013089BF8FB780688FBF84819581009761F0F4
S1130140909375008093740080E0089581E0089591
S113015081E0089581E0089580E0089581818823F5
S113016021F0813009F063C03EC08EB59FB59FBDBC
S11301708EBD82818230D9F030F4882361F08130E1
S113018009F057C00DC0863001F1873029F1843061
S113019009F04FC013C010927800109277002EC05F
S11301A081E090E0909378008093770027C082E00C
S11301B090E0909378008093770020C083E090E0F3
S11301C0909378008093770019C084E090E0909336
S11301D078008093770012C085E090E090937800D7
S11301E0809377000BC08EB59FB587609FBD8EBD91
S11301F087E090E090937800809377008381882350
S113020019F08130C1F403C089B789BF06C089B72A
S1130210846089BF8FB780688FBF84819581009780
S113022061F0909375008093740080E0089581E0FC
S1130230089581E0089581E0089580E00895818122
S1130240811149C085B585BD82818330C1F020F418
S1130250813069F080F408C08530C9F0A0F08630A0
S1130260D1F08730D1F51BC0109279001BC081E01A
S11302708093790017C082E08093790013C083E0F3
S1130280809379000FC084E0809379000BC085E0EF
S11302908093790007C086E08093790003C087E0EB
S11302A0809379008381882319F08130C1F403C0DD
S11302B089B789BF06C089B7806889BF8FB780684E
S11302C08FBF84819581009761F09093750080932E
S11302D0740080E0089581E0089581E0089581E04C
S11302E0089580E0089581E0089581E008958130C3
S11302F061F018F08230F9F416C062BF93B78091B0
S11303007600892B83BF80E008957DBD6CBD2EB53A
S11303103FB58091770090917800822B932B9FBDFD
S11303208EBD80E0089564BD95B580917900892BD8
S113033085BD80E0089581E008951F920F920FB665
S11303400F9211242F933F934F935F936F937F9357
S11303508F939F93AF93BF93EF93FF938091740018
S113036090917500892B29F0E0917400F09175004B
S11303700995FF91EF91BF91AF919F918F917F91DB
S11303806F915F914F913F912F910F900FBE0F90FE
S11303901F90189585B3809585BB80917A008F5FF7
S11303A080937A00089582B3809582BB0895CF9399
S11303B0DF931F92CDB7DEB78FEF84BB81BB198269
S11303C0CE0101960E940E0204E121E048EE53E0C2
S11303D060E070E08AEC91E00E9463020EE121E0AB
S11303E044EF51E060E070E083ED91E00E9463022D
S11303F00E941E0380917A008B30D0F384E10E9426
S1130400EF02F6CF66E070E080E00E94770181E0C1
S113041080937B0088B3809588BB0895CF93DF9346
S1130420CDB7DEB762970FB6F894DEBF0FBECDBF6F
S113043026E0E1E6F0E0DE01119601900D922A95A6
S1130440E1F726E0E7E6F0E0DE01179601900D9271
S11304502A95E1F726E0EDE6F0E0DE011D96019035
S11304600D922A95E1F7009711F1FC01808181300A
S113047061F018F08230E9F411C0CE0101960E94B7
S113048049001092600080E015C0CE0107960E94DA
S1130490490081E08093600080E00CC0CE010D969D
S11304A00E94490082E08093600080E003C081E004
S11304B001C087E062960FB6F894DEBF0FBECDBFD1
S11304C0DF91CF910895AF92BF92CF92DF92EF92D6
S11304D0FF920F931F93CF93DF93EC016A017B018B
S11304E0B22E009709F46DC0E7E8F0E0ABE9B5E09F
S11304F082E0402F50E095E0042F152F6081718138
S11305006417750709F4892F3D96EA17FB07A1F7CD
S1130510A82E823009F058C08091900581111CC02A
S113052081E08093900580916000813051F018F053
S1130530823091F40CC066E070E080E00E947701A4
S11305400BC066E07FEF81E00E94770105C066E0A2
S113055070E082E00E94770180918700909188008A
S1130560892B59F0E4E9F0E081E090E0682FAC01D8
S113057020813181232BD9F403C040E050E060E0B6
S11305808DE0849FF001859FF00D1124E458FF4F06
S1130590D183C083C282D382E482F582C782D086AB
S11305A0E186F286B6820387148780E007C06F5F16
S11305B001963D9684369105C9F68A2D643621F458
S11305C002C081E001C086E0DF91CF911F910F91BD
S11305D0FF90EF90DF90CF90BF90AF9008959091EF
S11305E06000933049F190E02091870030918800B9
S11305F02817390759F0E4E9F0E021E030E0B901C7
S1130600408151814817590779F402C060E070E0D5
S11306108DE0869FF001879FF00D1124E458FF4F71
S11306201486138680E008952F5F3F4F3D9624364D
S1130630310529F784E0089582E00895CF92DF928E
S1130640EF92FF920F931F93CF93DF9380917B00E0
S1130650813009F047C010927B00CCE7D0E002E87B
S113066010E00F2EF0E9EF2EF5E0FF2EF02D689448
S1130670DD24D1F80F2EF7E0CF2EF02D8B859C854D
S1130680892B49F14F81588569857A8541505109F3
S1130690610971094F83588769877A87452B462BEF
S11306A0472BC9F4D8018C91882371F0813091F4DF
S11306B08A819B81AC81BD818F839887A987BA8702
S11306C0E881F981099507C01C861B86E881F981B8
S11306D0099501C0DC2C2D96035F1F4FCE15DF0555
S11306E069F603C06894DD24D1F88D2DDF91CF9194
S11306F01F910F91FF90EF90DF90CF900895F894A1
S1050700FFCF25
S113070203000004010202010004010202020004C7
S107071201020200DA
S9030000FC
